{
  "contractName": "AdAuction",
  "abi": [
    {
      "inputs": [],
      "stateMutability": "nonpayable",
      "type": "constructor"
    },
    {
      "anonymous": false,
      "inputs": [
        {
          "indexed": false,
          "internalType": "string",
          "name": "hashImage",
          "type": "string"
        },
        {
          "indexed": false,
          "internalType": "string",
          "name": "message",
          "type": "string"
        },
        {
          "indexed": false,
          "internalType": "address",
          "name": "currentHighestBid",
          "type": "address"
        },
        {
          "indexed": false,
          "internalType": "uint256",
          "name": "currentHighetsBid",
          "type": "uint256"
        },
        {
          "indexed": false,
          "internalType": "uint256",
          "name": "currentMoneyCollected",
          "type": "uint256"
        }
      ],
      "name": "currentBidStatus",
      "type": "event"
    },
    {
      "stateMutability": "payable",
      "type": "fallback",
      "payable": true
    },
    {
      "inputs": [],
      "name": "cbd",
      "outputs": [
        {
          "internalType": "string",
          "name": "currentHashImage",
          "type": "string"
        },
        {
          "internalType": "string",
          "name": "currentMessage",
          "type": "string"
        },
        {
          "internalType": "address",
          "name": "currentHighestBidder",
          "type": "address"
        },
        {
          "internalType": "uint256",
          "name": "currentHighestBid",
          "type": "uint256"
        },
        {
          "internalType": "uint256",
          "name": "currentMoneyCollected",
          "type": "uint256"
        }
      ],
      "stateMutability": "view",
      "type": "function",
      "constant": true
    },
    {
      "inputs": [
        {
          "internalType": "string",
          "name": "hashImage",
          "type": "string"
        },
        {
          "internalType": "string",
          "name": "message",
          "type": "string"
        }
      ],
      "name": "bid",
      "outputs": [],
      "stateMutability": "payable",
      "type": "function",
      "payable": true
    }
  ],
  "bytecode": "0x608060405234801561001057600080fd5b5060008060040181905550610b8e8061002a6000396000f3fe60806040526004361061002d5760003560e01c8063a4f2613d14610069578063d2137931146100855761002e565b5b6040517f08c379a00000000000000000000000000000000000000000000000000000000081526004016100609061075e565b60405180910390fd5b610083600480360381019061007e919061053f565b6100b4565b005b34801561009157600080fd5b5061009a6102d8565b6040516100ab9594939291906106bd565b60405180910390f35b60008251116100f8576040517f08c379a00000000000000000000000000000000000000000000000000000000081526004016100ef9061071e565b60405180910390fd5b600081511161013c576040517f08c379a00000000000000000000000000000000000000000000000000000000081526004016101339061077e565b60405180910390fd5b6000600301543411610183576040517f08c379a000000000000000000000000000000000000000000000000000000000815260040161017a9061073e565b60405180910390fd5b600073ffffffffffffffffffffffffffffffffffffffff163373ffffffffffffffffffffffffffffffffffffffff1614156101f3576040517f08c379a00000000000000000000000000000000000000000000000000000000081526004016101ea9061079e565b60405180910390fd5b34600060040160008282546102089190610830565b9250508190555033600060020160006101000a81548173ffffffffffffffffffffffffffffffffffffffff021916908373ffffffffffffffffffffffffffffffffffffffff1602179055508160008001908051906020019061026b92919061042c565b50806000600101908051906020019061028592919061042c565b50346000600301819055507f9cd3102c4ddb6b49f759f231fad1051e3bc615f049682498873b025bcdadf4fe828233346000600401546040516102cc9594939291906106bd565b60405180910390a15050565b60008060000180546102e990610904565b80601f016020809104026020016040519081016040528092919081815260200182805461031590610904565b80156103625780601f1061033757610100808354040283529160200191610362565b820191906000526020600020905b81548152906001019060200180831161034557829003601f168201915b50505050509080600101805461037790610904565b80601f01602080910402602001604051908101604052809291908181526020018280546103a390610904565b80156103f05780601f106103c5576101008083540402835291602001916103f0565b820191906000526020600020905b8154815290600101906020018083116103d357829003601f168201915b5050505050908060020160009054906101000a900473ffffffffffffffffffffffffffffffffffffffff16908060030154908060040154905085565b82805461043890610904565b90600052602060002090601f01602090048101928261045a57600085556104a1565b82601f1061047357805160ff19168380011785556104a1565b828001600101855582156104a1579182015b828111156104a0578251825591602001919060010190610485565b5b5090506104ae91906104b2565b5090565b5b808211156104cb5760008160009055506001016104b3565b5090565b60006104e26104dd846107e3565b6107be565b9050828152602081018484840111156104fe576104fd6109f9565b5b6105098482856108c2565b509392505050565b600082601f830112610526576105256109f4565b5b81356105368482602086016104cf565b91505092915050565b6000806040838503121561055657610555610a03565b5b600083013567ffffffffffffffff811115610574576105736109fe565b5b61058085828601610511565b925050602083013567ffffffffffffffff8111156105a1576105a06109fe565b5b6105ad85828601610511565b9150509250929050565b6105c081610886565b82525050565b60006105d182610814565b6105db818561081f565b93506105eb8185602086016108d1565b6105f481610a08565b840191505092915050565b600061060c60138361081f565b915061061782610a19565b602082019050919050565b600061062f600f8361081f565b915061063a82610a42565b602082019050919050565b600061065260638361081f565b915061065d82610a6b565b608082019050919050565b600061067560118361081f565b915061068082610b06565b602082019050919050565b600061069860128361081f565b91506106a382610b2f565b602082019050919050565b6106b7816108b8565b82525050565b600060a08201905081810360008301526106d781886105c6565b905081810360208301526106eb81876105c6565b90506106fa60408301866105b7565b61070760608301856106ae565b61071460808301846106ae565b9695505050505050565b60006020820190508181036000830152610737816105ff565b9050919050565b6000602082019050818103600083015261075781610622565b9050919050565b6000602082019050818103600083015261077781610645565b9050919050565b6000602082019050818103600083015261079781610668565b9050919050565b600060208201905081810360008301526107b78161068b565b9050919050565b60006107c86107d9565b90506107d48282610936565b919050565b6000604051905090565b600067ffffffffffffffff8211156107fe576107fd6109c5565b5b61080782610a08565b9050602081019050919050565b600081519050919050565b600082825260208201905092915050565b600061083b826108b8565b9150610846836108b8565b9250827fffffffffffffffffffffffffffffffffffffffffffffffffffffffffffffffff0382111561087b5761087a610967565b5b828201905092915050565b600061089182610898565b9050919050565b600073ffffffffffffffffffffffffffffffffffffffff82169050919050565b6000819050919050565b82818337600083830152505050565b60005b838110156108ef5780820151818401526020810190506108d4565b838111156108fe576000848401525b50505050565b6000600282049050600182168061091c57607f821691505b602082108114156109305761092f610996565b5b50919050565b61093f82610a08565b810181811067ffffffffffffffff8211171561095e5761095d6109c5565b5b80604052505050565b7f4e487b7100000000000000000000000000000000000000000000000000000000600052601160045260246000fd5b7f4e487b7100000000000000000000000000000000000000000000000000000000600052602260045260246000fd5b7f4e487b7100000000000000000000000000000000000000000000000000000000600052604160045260246000fd5b600080fd5b600080fd5b600080fd5b600080fd5b6000601f19601f8301169050919050565b7f68617368496d61676520697320656d7074792100000000000000000000000000600082015250565b7f42696420697320746f6f206c6f77210000000000000000000000000000000000600082015250565b7f456e64206f6620746865206c696e652c207468652066756e6374696f6e20796f60008201527f7527726520747279696e6720746f2063616c6c20646f65736e2774206578697360208201527f7473206f722069747320756e617661696c61626c652e20526576657274696e6760408201527f2e2e2e0000000000000000000000000000000000000000000000000000000000606082015250565b7f6d65737361676520697320656d70747921000000000000000000000000000000600082015250565b7f41647265737320697320696e76616c696421000000000000000000000000000060008201525056fea2646970667358221220f9d9e7ee49aba7e530a77b81f5bdb86212a72e91bd7bc4072f8f6a4f6ad3183d64736f6c63430008060033",
  "immutableReferences": {},
  "source": "// SPDX-License-Identifier: MIT\r\npragma solidity 0.8.6;\r\n\r\ncontract AdAuction {\r\n\r\n  struct CurrentBidData {\r\n    // hash of the IPFS file uplaoded.\r\n    string currentHashImage;\r\n\r\n    // Current message.\r\n    string currentMessage;\r\n\r\n    // address of current highest bidder\r\n    address currentHighestBidder;\r\n\r\n    // current highest bid\r\n    uint256 currentHighestBid;\r\n\r\n    // Total money collected\r\n    uint256 currentMoneyCollected;\r\n  }\r\n\r\n  // We define our struct.\r\n  CurrentBidData public cbd;\r\n\r\n\r\n  // Oracle to emit when someone overthrows the current highest bidder.\r\n  event currentBidStatus(string hashImage, string message, address currentHighestBid, uint256 currentHighetsBid, uint256 currentMoneyCollected);\r\n\r\n\tconstructor() public {\r\n    cbd.currentMoneyCollected = 0;\r\n  }\r\n\r\n\r\n  function bid(string memory hashImage, string memory message) public payable {\r\n\r\n    // Make sure the image hash exists\r\n    require(bytes(hashImage).length > 0, \"hashImage is empty!\");\r\n\r\n    // Make sure the message exists\r\n    require(bytes(message).length > 0, \"message is empty!\");\r\n\r\n    // Checks that the bid is higher than current highest bid.\r\n    require(msg.value > cbd.currentHighestBid, \"Bid is too low!\");\r\n\r\n    // Make sure uploader address exists\r\n    require(msg.sender != address(0), \"Adress is invalid!\");\r\n\r\n    // track the total amount of eth that the contract is holding\r\n    cbd.currentMoneyCollected += msg.value;\r\n\r\n    // Set sender, image hash, current highest bid and message as current.\r\n    cbd.currentHighestBidder = msg.sender;\r\n    cbd.currentHashImage = hashImage;\r\n    cbd.currentMessage = message;\r\n    cbd.currentHighestBid = msg.value;\r\n\r\n    // Emit oracle when someone overthrows the current highest bidder.\r\n    emit currentBidStatus(hashImage, message, msg.sender, msg.value, cbd.currentMoneyCollected);\r\n  }\r\n\r\n  // Fallback: reverts if Ether is sent to this smart contract by mistake\r\n  fallback() external payable {\r\n    revert(\"End of the line, the function you're trying to call doesn't exists or its unavailable. Reverting...\");\r\n  }\r\n}",
  "sourcePath": "C:/Users/SApro/Desktop/DAPP_Advertisement_Auction/src/contracts/AdAuction.sol",
  "compiler": {
    "name": "solc",
    "version": "0.8.6+commit.11564f7e.Emscripten.clang"
  },
  "schemaVersion": "3.4.1",
  "updatedAt": "2021-07-21T22:13:43.902Z",
  "networkType": "ethereum",
  "devdoc": {
    "kind": "dev",
    "methods": {},
    "version": 1
  },
  "userdoc": {
    "kind": "user",
    "methods": {},
    "version": 1
  }
}